{
  "contractName": "Lottery",
  "abi": [
    {
      "inputs": [],
      "stateMutability": "nonpayable",
      "type": "constructor"
    },
    {
      "inputs": [],
      "name": "manager",
      "outputs": [
        {
          "internalType": "address",
          "name": "",
          "type": "address"
        }
      ],
      "stateMutability": "view",
      "type": "function"
    },
    {
      "inputs": [
        {
          "internalType": "uint256",
          "name": "",
          "type": "uint256"
        }
      ],
      "name": "participants",
      "outputs": [
        {
          "internalType": "address payable",
          "name": "",
          "type": "address"
        }
      ],
      "stateMutability": "view",
      "type": "function"
    },
    {
      "stateMutability": "payable",
      "type": "receive"
    },
    {
      "inputs": [],
      "name": "getBalance",
      "outputs": [
        {
          "internalType": "uint256",
          "name": "",
          "type": "uint256"
        }
      ],
      "stateMutability": "view",
      "type": "function"
    },
    {
      "inputs": [],
      "name": "random",
      "outputs": [
        {
          "internalType": "uint256",
          "name": "",
          "type": "uint256"
        }
      ],
      "stateMutability": "view",
      "type": "function"
    },
    {
      "inputs": [],
      "name": "selectWinner",
      "outputs": [],
      "stateMutability": "nonpayable",
      "type": "function"
    }
  ],
  "bytecode": "0x608060405234801561000f575f80fd5b50335f806101000a81548173ffffffffffffffffffffffffffffffffffffffff021916908373ffffffffffffffffffffffffffffffffffffffff1602179055506107098061005c5f395ff3fe60806040526004361061004d575f3560e01c806312065fe0146100ca57806333a99e04146100f457806335c1d3491461010a578063481c6a75146101465780635ec01e4d14610170576100c6565b366100c657670de0b6b3a76400003414610065575f80fd5b600133908060018154018082558091505060019003905f5260205f20015f9091909190916101000a81548173ffffffffffffffffffffffffffffffffffffffff021916908373ffffffffffffffffffffffffffffffffffffffff1602179055005b5f80fd5b3480156100d5575f80fd5b506100de61019a565b6040516100eb91906104bd565b60405180910390f35b3480156100ff575f80fd5b506101086101f8565b005b348015610115575f80fd5b50610130600480360381019061012b9190610504565b61036d565b60405161013d919061056e565b60405180910390f35b348015610151575f80fd5b5061015a6103a8565b60405161016791906105a7565b60405180910390f35b34801561017b575f80fd5b506101846103cb565b60405161019191906104bd565b60405180910390f35b5f805f9054906101000a900473ffffffffffffffffffffffffffffffffffffffff1673ffffffffffffffffffffffffffffffffffffffff163373ffffffffffffffffffffffffffffffffffffffff16146101f2575f80fd5b47905090565b5f8054906101000a900473ffffffffffffffffffffffffffffffffffffffff1673ffffffffffffffffffffffffffffffffffffffff163373ffffffffffffffffffffffffffffffffffffffff161461024e575f80fd5b60036001805490501015610260575f80fd5b5f6102696103cb565b90505f806001805490508361027e91906105ed565b9050600181815481106102945761029361061d565b5b905f5260205f20015f9054906101000a900473ffffffffffffffffffffffffffffffffffffffff1691508173ffffffffffffffffffffffffffffffffffffffff166108fc6102e061019a565b90811502906040515f60405180830381858888f19350505050158015610308573d5f803e3d5ffd5b505f67ffffffffffffffff8111156103235761032261064a565b5b6040519080825280602002602001820160405280156103515781602001602082028036833780820191505090505b5060019080519060200190610367929190610403565b50505050565b6001818154811061037c575f80fd5b905f5260205f20015f915054906101000a900473ffffffffffffffffffffffffffffffffffffffff1681565b5f8054906101000a900473ffffffffffffffffffffffffffffffffffffffff1681565b5f44426001805490506040516020016103e693929190610697565b604051602081830303815290604052805190602001205f1c905090565b828054828255905f5260205f20908101928215610479579160200282015b82811115610478578251825f6101000a81548173ffffffffffffffffffffffffffffffffffffffff021916908373ffffffffffffffffffffffffffffffffffffffff16021790555091602001919060010190610421565b5b509050610486919061048a565b5090565b5b808211156104a1575f815f90555060010161048b565b5090565b5f819050919050565b6104b7816104a5565b82525050565b5f6020820190506104d05f8301846104ae565b92915050565b5f80fd5b6104e3816104a5565b81146104ed575f80fd5b50565b5f813590506104fe816104da565b92915050565b5f60208284031215610519576105186104d6565b5b5f610526848285016104f0565b91505092915050565b5f73ffffffffffffffffffffffffffffffffffffffff82169050919050565b5f6105588261052f565b9050919050565b6105688161054e565b82525050565b5f6020820190506105815f83018461055f565b92915050565b5f6105918261052f565b9050919050565b6105a181610587565b82525050565b5f6020820190506105ba5f830184610598565b92915050565b7f4e487b71000000000000000000000000000000000000000000000000000000005f52601260045260245ffd5b5f6105f7826104a5565b9150610602836104a5565b925082610612576106116105c0565b5b828206905092915050565b7f4e487b71000000000000000000000000000000000000000000000000000000005f52603260045260245ffd5b7f4e487b71000000000000000000000000000000000000000000000000000000005f52604160045260245ffd5b5f819050919050565b61069161068c826104a5565b610677565b82525050565b5f6106a28286610680565b6020820191506106b28285610680565b6020820191506106c28284610680565b60208201915081905094935050505056fea26469706673582212204c21c9e48cb02f41446483e0ee10eeb80cdcb45830cac3cf6de5f0d7b1891ef764736f6c63430008150033",
  "immutableReferences": {},
  "source": "// SPDX-License-Identifier: GPL-3.0\n\npragma solidity >=0.8.2 <0.9.0;\n\ncontract Lottery {\n    //  This is the one who deploys this contract\n    address public manager;\n\n    // This are the participants\n    address payable[] public participants;\n\n    constructor() {\n        manager = msg.sender; // msg.sender is the one who deploys this address\n    }\n\n    // This can be used only one time. It can be called using transact function\n\n    receive() external payable {\n        require(msg.value == 1 ether);\n        participants.push(payable(msg.sender));\n    }\n\n    function getBalance() public view returns (uint) {\n        require(msg.sender == manager);\n        return address(this).balance;\n    }\n\n    function random() public view returns (uint) {\n        return\n            uint(\n                keccak256(\n                    abi.encodePacked(\n                        block.prevrandao,\n                        block.timestamp,\n                        participants.length\n                    )\n                )\n            );\n    }\n\n    function selectWinner() public {\n        require(msg.sender == manager);\n        require(participants.length >= 3);\n\n        uint r = random();\n\n        address payable winner;\n\n        uint index = r % participants.length;\n\n        winner = participants[index];\n\n        winner.transfer(getBalance());\n\n        participants = new address payable[](0);\n    }\n}\n",
  "sourcePath": "/Users/subhashishjungshah/Documents/Mindxcape/Blockchain/lotteryApp/contracts/lottery.sol",
  "compiler": {
    "name": "solc",
    "version": "0.8.21+commit.d9974bed.Emscripten.clang"
  },
  "schemaVersion": "3.4.16",
  "updatedAt": "2023-10-25T06:06:09.043Z",
  "devdoc": {
    "kind": "dev",
    "methods": {},
    "version": 1
  },
  "userdoc": {
    "kind": "user",
    "methods": {},
    "version": 1
  }
}